:100000000C942A000C9447000C9447000C94470071
:100010000C9447000C9447000C9447000C94470044
:100020000C9447000C9447000C9447000C94470034
:100030000C9447000C9447000C9447000C94470024
:100040000C9447000C9447000C9447000C94470014
:100050000C94470011241FBECFE5D4E0DEBFCDBF16
:1000600010E0A0E6B0E0EAE7F2E002C005900D92F1
:10007000AA37B107D9F710E0AAE7B0E001C01D9296
:10008000AB37B107E1F70E94EF000C943B010C94F1
:100090000000282F207F28BBC298C39A20ED37E0AC
:1000A000F9013197F1F7C398F9013197F1F790E031
:1000B00044E0880F991F4A95E1F788BBC298C39A1C
:1000C000C9010197F1F7C398C9010197F1F70895A4
:1000D00082E090E00E94490088E290E00E9449009E
:1000E00086E090E00E9449008CE090E00E94490088
:1000F0000895282F207F28BBC29AC39A20ED37E0AD
:10010000F9013197F1F7C398F9013197F1F790E0D0
:1001100054E0880F991F5A95E1F788BBC29AC39A99
:10012000C9010197F1F7C398C9010197F1F7089543
:1001300081E00E94490080ED97E00197F1F7089572
:100140001F93CF93DF93EC0110E003C00E9479006E
:100150001F5FFE01E10FF11D80818823B9F7DF9158
:10016000CF911F910895CF93DF93EC0184E00E941B
:100170004900209791F480E30E9479000EC0CE01DF
:100180006AE070E00E942701805D0E947900CE0144
:100190006AE070E00E942701EB01209781F786E07A
:1001A0000E944900DF91CF91089583E389B910BC83
:1001B0008EE880BD88E18AB908955D9BFECF8CB939
:1001C00008955F9BFECF8CB10895FC0104C05D9B38
:1001D000FECF8CB9319680818823C9F708951F938B
:1001E000CF93DF938FEF87BB0E94680083E389B9C9
:1001F00010BC8EE880BD88E18AB9C0E2DEE480E808
:100200000E94490080E690E00E94A000E8E6F0E04D
:1002100004C05D9BFECF8CB9319680818823C9F7DD
:1002200010EC5F9BFECF8CB180937A00812F0E94EF
:10023000490080917A000E94790086E00E9449007E
:10024000CE010197F1F71F5F103D59F7D8CFAA1BD8
:10025000BB1B51E107C0AA1FBB1FA617B70710F0B1
:10026000A61BB70B881F991F5A95A9F780959095E3
:0A027000BC01CD010895F894FFCF02
:10027A0057454C434F4D450057454C434F4D45203C
:0A028A00544F2053455249414C00E7
:00000001FF
